:100000000C9452010C9483010C9483010C94830191
:100010000C9483010C9483010C9483010C94830150
:100020000C9483010C9483010C9483010C94830140
:100030000C9483010C94380A0C9483010C94830172
:100040000C9483010C9483010C9483010C94830120
:100050000C9483010C9483010C9483010C94F80A92
:100060000C9483010C94C20A0C94980A0C9483019A
:100070000C9483010C9483010C9483010C948301F0
:100080000C9483010C9483010C9483010C948301E0
:100090000C9483010C9483010C9483010C94420B07
:1000A0000C9483010C9483010C9483010C948301C0
:1000B0000C9483010C9483010C9483010C948301B0
:1000C0000C9483010C9483010C9483010C948301A0
:1000D0000C9483010C9483010C9483010C94830190
:1000E0000C9483010C94A7030C9423030C94370302
:1000F0000C94EE010C941F030C943F030C947603B4
:100100000C9404030C945A080C9419090C948E0155
:100110000C9412090C943B030C940E030C9453089A
:100120000C9402020C9431080C9444030C9487083C
:100130000C9419030C9431030C9429030C940A03B6
:100140000C9440080C94D9050C948D010C942D034B
:100150000C9449030C949D060C9445030C941002D6
:100160000C9430080C9412030C94B2010C941603F6
:100170000C94660C0C9495020C94DF010C944802CC
:1001800000002100240027002A002D003000330049
:1001900001010000040107010A0100002000230002
:1001A000260029002C002F0032000001000003016E
:1001B0000601090100000A0B02090C0D0E080703D5
:1001C000040100000000000000000000000000002A
:1001D000000000000000000000000000000000001F
:1001E00012111000000000000000000000000000DC
:1001F00000000000000000000000010210202008A4
:100200000810204010204080020102010804020171
:1002100001020408102040808040201008040201E0
:100220008004020180402010080402010804020139
:1002300001020408102040800102040810204080C0
:1002400000002200250028002B002E003100340081
:1002500002010000050108010B0105050505070560
:1002600008080808020202020A0A08080404040432
:10027000010101010101010103030303030303035E
:10028000040707070C0C0C0C0C0C0C0C02020202ED
:1002900006060606060606060B0B0B0B0B0B0B0BD6
:1002A0000200660C11241FBECFEFD1E2DEBFCDBF2E
:1002B00000E00CBF25E0A6EFB2E001C01D92AE3415
:1002C000B207E1F712E0A0E0B2E0E0E7FCE200E014
:1002D0000BBF02C007900D92A63FB107D9F711E0FE
:1002E000C2E5D1E000E006C021970109802FFE01A0
:1002F0000E94F514C135D10780E00807A9F70E94D4
:100300001B0D0C9436160C940000E2E0F4E08AE237
:10031000808381838283838308950895089596E07E
:10032000899FD0011124A153BB4F90967C936E936B
:100330005F9791E091969C939197E0913C05F091A5
:100340003D0590913B05992339F0309751F081118B
:1003500008C08091EB041994309719F05C968C9149
:10036000FACF0895AF92BF92CF92DF92EF92FF92B1
:100370000F931F93CF93DF936C017B018B01040FCD
:10038000151FEB015E01AE18BF08C017D10759F069
:100390006991D601ED91FC910190F081E02DC601AB
:1003A0001995892B79F7C501DF91CF911F910F9195
:1003B000FF90EF90DF90CF90BF90AF900895FC0139
:1003C000538D448D252F30E0842F90E0821B930BBA
:1003D000541710F0CF96089501970895FC01918D60
:1003E000828D981761F0A28DAE0FBF2FB11D5D9663
:1003F0008C91928D9F5F9F73928F90E008958FEF05
:100400009FEF0895FC01918D828D981731F0828DB8
:10041000E80FF11D858D90E008958FEF9FEF08950F
:10042000FC01918D228D892F90E0805C9F4F821B73
:1004300091098F739927089586E294E00E94100233
:1004400021E0892B09F420E0822F0895FC01A48D7E
:10045000A80FB92FB11DA35ABF4F2C91848D90E0E6
:1004600001968F739927848FA689B7892C93A089C9
:10047000B1898C91837080648C93938D848D981353
:1004800006C00288F389E02D80818F7D80830895E6
:10049000EF92FF920F931F93CF93DF93EC0181E0D4
:1004A000888F9B8D8C8D98131AC0E889F98980817B
:1004B00085FF15C09FB7F894EE89FF896083E889AE
:1004C000F98980818370806480839FBF81E090E0A0
:1004D000DF91CF911F910F91FF90EF900895F62E2D
:1004E0000B8D10E00F5F1F4F0F731127E02E8C8DC7
:1004F0008E110CC00FB607FCFACFE889F98980810C
:1005000085FFF5CFCE010E942602F1CFEB8DEC0FD7
:10051000FD2FF11DE35AFF4FF0829FB7F8940B8F28
:10052000EA89FB8980818062CFCFCF93DF93EC0192
:10053000888D8823B9F0AA89BB89E889F9898C91CB
:1005400085FD03C0808186FD0DC00FB607FCF7CF87
:100550008C9185FFF2CF808185FFEDCFCE010E9487
:100560002602E9CFDF91CF91089580E090E0892BBA
:1005700029F00E941C0281110E94000080E090E09E
:10058000892B49F080E090E0892B29F00E9400003F
:1005900081110E94000080E090E0892B49F080E00A
:1005A00090E0892B29F00E94000081110E94000038
:1005B00080E090E0892B49F080E090E0892B29F0E1
:1005C0000E94000081110C94000008958150823136
:1005D00008F05AC0E82FF0E08827EE50FD4F8F4F0B
:1005E0000C94F5141203160304030A030E034403C8
:1005F00019031F03230329032D03310337033B038F
:1006000044033F0345034903809180008F77809323
:1006100080000895809180008F7DF9CF80918000C7
:10062000877FF5CF84B58F7784BD089584B58F7D9E
:10063000FBCF8091B0008F778093B00008958091B8
:10064000B0008F7DF9CF809190008F7780939000DC
:100650000895809190008F7DF9CF80919000877FE1
:10066000F5CF8091A0008F778093A00008958091AE
:10067000A0008F7DF9CF8091A000877FF5CF80917A
:1006800020018F77809320010895809120018F7D34
:10069000F9CF80912001877FF5CFCF93DF93282F6B
:1006A00030E0F901EC54FE4F8491F901E650FE4F21
:1006B000D491F901E65AFD4FC491CC23A1F08111E8
:1006C0000E94E602EC2FF0E0EE0FFF1FE656FE4F11
:1006D000A591B491EC91ED2381E090E009F480E0E4
:1006E000DF91CF91089580E090E0FACF862F0C94AF
:1006F0004D031F93CF93DF93282F30E0F901EC5483
:10070000FE4F8491F901E650FE4FD491F901E65A6B
:10071000FD4FC491CC23A9F0162F81110E94E6024F
:10072000EC2FF0E0EE0FFF1FE05CFD4FA591B491C0
:100730008FB7F894EC91111108C0D095DE23DC93AB
:100740008FBFDF91CF911F910895DE2BF8CF862FB9
:10075000642F0C94790390910D0289130DC0E0EA87
:10076000F2E0E4919FEF90930D02E230E1F038F473
:10077000EE2381F0E13089F060E00C947903E430FD
:1007800049F110F1E530C1F7909173009D7F90938E
:100790007300F2CF10926E00EFCF90916F009D7FAB
:1007A00090936F00E9CF909170009D7F90937000BF
:1007B00091E09093B0009091B100987F94609093F5
:1007C000B1001092B300D8CF909171009D7F9093AB
:1007D0007100D2CF909172009D7F90937200CCCF28
:1007E000CF93DF9390E0FC01E650FE4F2491865AB0
:1007F0009D4FFC0184918823C9F090E0880F991FD8
:10080000FC01E058FE4FA591B491FC01E05CFD4F66
:10081000C591D49161110DC09FB7F8948C9120952A
:1008200082238C938881282328839FBFDF91CF91D7
:100830000895623051F49FB7F8943C91822F8095CF
:1008400083238C93E8812E2BEFCF8FB7F894EC9114
:100850002E2B2C938FBFEACFCF9380910D028D303A
:1008600021F08F3FC9F0CF910895E0EAF2E0C49102
:10087000C7FDF9CF61E08DE00E94F003CC2309F4BD
:10088000DEC0C23009F0F2C08091B100887F846080
:100890008093B1008FEC7AC18DE080930D02E0EA85
:1008A000F2E0C4918C2FCF3FF1F2C23009F468C05E
:1008B00060F4CC2379F1C13009F444C087FDD3CF73
:1008C00061E08DE00E94F003DCCFC43009F499C0F0
:1008D00008F478C0C53091F71092200110922101E0
:1008E00080912101886080932101809121018160A4
:1008F00080932101E7E6F2E0E491F0E0EE0FFF1FC4
:10090000E05CFD4F85919491E7E0F2E0E491E093A3
:100910000604B0CF14BC15BC84B5826084BD85B517
:10092000816085BDE7E6F2E0E491F0E0EE0FFF1FA5
:10093000E05CFD4F85919491E7E0F2E0E491E09373
:100940000D0498CF10928000109281008091810058
:100950008860809381008091810081608093810014
:10096000E7E6F2E0E491F0E0EE0FFF1FE05CFD4F00
:1009700085919491E7E0F2E0E491E0930C047ACF62
:100980001092B0001092B1008091B000826080930C
:10099000B0008091B10081608093B100E7E6F2E0A1
:1009A000E491F0E0EE0FFF1FE05CFD4F8591949124
:1009B00090930B0480930A04E7E0F2E0E491E09363
:1009C000090458CF109290001092910080919100EC
:1009D0008860809391008091910081608093910064
:1009E000E7E6F2E0E491F0E0EE0FFF1FE05CFD4F80
:1009F00085919491E7E0F2E0E491E0930804C3E08C
:100A000039CF1092A0001092A1008091A1008860BF
:100A10008093A1008091A10081608093A100E7E60E
:100A2000F2E0E491F0E0EE0FFF1FE05CFD4F8591F6
:100A30009491E7E0F2E0E491E09307041BCF85B5E1
:100A4000887F836085BD8FEC87BD8FEF9FEFDC01D2
:100A50008093220490932304A0932404B09325044C
:100A600080916E00826080936E00FDCEC130E9F40B
:100A700080918100887F81608093810084E194E38C
:100A800090938900809388008FEF9FEFDC01809323
:100A90001E0490931F04A0932004B093210480911E
:100AA0006F00826080936F00DECEC330E9F48091E6
:100AB0009100887F81608093910084E194E390931A
:100AC0009900809398008FEF9FEFDC0180931604CC
:100AD00090931704A0931804B093190480917100A7
:100AE000826080937100BFCEC430E9F48091A10090
:100AF000887F81608093A10084E194E39093A900B2
:100B00008093A8008FEF9FEFDC01809312049093F5
:100B10001304A0931404B0931504809172008260B2
:100B200080937200A0CEC530E9F480912101887FC6
:100B300081608093210184E194E390932901809363
:100B400028018FEF9FEFDC0180930E0490930F0438
:100B5000A0931004B093110480917300826080937D
:100B6000730081CEC23089F034F4CC2361F0C130FF
:100B700009F079CE83CFC43009F4BECF0CF49DCFF9
:100B8000C530C9F270CE84E15FCF84E18093B300B9
:100B90008FEF9FEFDC0180931A0490931B04A093C6
:100BA0001C04B0931D0480917000826080937000DB
:100BB0005ACE862F642F0C94F0033FB7F89480919F
:100BC0003F0390914003A0914103B091420326B5A9
:100BD000A89B05C02F3F19F00196A11DB11D3FBF75
:100BE000BA2FA92F982F8827BC01CD01620F711D44
:100BF000811D911D42E0660F771F881F991F4A953E
:100C0000D1F708958F929F92AF92BF92CF92DF92C9
:100C1000EF92FF926B017C010E94DD054B015C01AC
:100C2000C114D104E104F104B9F00E94DD05681992
:100C300079098A099B09683E73408105910580F313
:100C400021E0C21AD108E108F10888EE880E83E09D
:100C5000981EA11CB11CE4CFFF90EF90DF90CF90C5
:100C6000BF90AF909F908F9008952FB7F8946091A8
:100C70003B0370913C0380913D0390913E032FBF55
:100C800008950F931F93CF93DF93C82FD62F86E03D
:100C9000C89FF0011124E153FB4F11A2878D90A151
:100CA00081309105F1F058F082309105F1F1039710
:100CB00009F440C0DF91CF911F910F9108956623F1
:100CC000C9F361E070E08C2F0E948F010E9435060D
:100CD00060932705709328058093290590932A0532
:100CE000E9CF0E9435060091270510912805209133
:100CF000290530912A05AB01BC01401B510B620B49
:100D0000730B8091390590913A05B0E0A0E084170B
:100D10009507A607B70748F462E070E08C2FDF91D3
:100D2000CF911F910F910C948F0163E070E0D1116E
:100D3000C1CFF4CF70E060E0F1CF089520911703A8
:100D4000260F3327331F21323105ECF42091D803CD
:100D5000FC0190E080E0243069F082E00895A091E9
:100D600017032191AC0149505D4FA40FB52FB11D60
:100D70002C930196861798F380911703680F609360
:100D8000170380E0089581E008951092D80381E070
:100D90008093D7031092B20361E084E10E9479034B
:100DA00061E085E10E947903E9EBF0E080818E7FCC
:100DB000808380818D7F808388E48093B80085E480
:100DC0008093BC0008951092B1031092B00310926A
:100DD000DF03109201040E94C5068DE891E0909314
:100DE000AF038093AE038EE891E09093AD038093C0
:100DF000AC030895CF93DF9391E09093F60288239C
:100E0000B9F0C091B800D091BA008091BC008A7B43
:100E10008093BC0060E084E10E94790360E085E19A
:100E20000E9479030E94C506D093BA00C093B8000F
:100E3000DF91CF9108958F929F92AF92BF92CF9200
:100E4000DF92EF92FF920F931F93CF93DF93D09196
:100E50000104D13208F0D7C0182FC09100040E94BD
:100E6000DD056B017C018091D80381116BC082E0AC
:100E70008093D8031093D7038FEF8093D6031092FB
:100E8000D503D093D403A0EEB3E0E4EBF3E080E02D
:100E9000D81391C01092B3038091B303CC0FC82B29
:100EA000C093B3038091B203813009F088C01092DF
:100EB000B2030E94DD056B017C018091B303809336
:100EC000BB008091DA039091DB03A091DC03B09129
:100ED000DD03892B8A2B8B2BA1F00E94DD0500916D
:100EE000DA031091DB032091DC033091DD036C19F0
:100EF0007D098E099F09061717072807390708F487
:100F000042C08091BC0083FDD8CF85EC8093BC00AB
:100F10000E94DD056B017C018091D803823009F4C9
:100F200050C08091D6038F3F09F46FC08091D603E3
:100F3000803209F46CC08091D603803309F469C013
:100F400084E026C08091DA039091DB03A091DC035A
:100F5000B091DD03892B8A2B8B2B09F484CF0E945F
:100F6000DD058090DA039090DB03A090DC03B09065
:100F7000DD036C197D098E099F0986169706A80660
:100F8000B90608F070CF8091D9030E94FA0685E077
:100F90001092DF03109201041092DE03DF91CF91D3
:100FA0001F910F91FF90EF90DF90CF90BF90AF9087
:100FB0009F908F9008959D9191938F5F69CF85EE5B
:100FC000A5CF8091DA039091DB03A091DC03B0916F
:100FD000DD03892B8A2B8B2B09F49ECF0E94DD0524
:100FE0000091DA031091DB032091DC033091DD03E3
:100FF0006C197D098E099F090617170728073907FD
:1010000008F08ACFC0CF81E0C3CF80E0C1CF82E0BB
:10101000BFCF83E0BDCFCF93DF93EC018B818823DB
:10102000A1F0888191E09093DE03809300041092F8
:10103000DF031092010481E00E941B0791E08111FF
:1010400090E0892FDF91CF9108950E94E30681E01F
:101050008B83CE010E940B08982F8111E2CFF1CF34
:101060000895E091B1038091B003E81730F4F0E007
:10107000ED5BFC4F808190E008958FEF9FEF089526
:101080009091B1038091B0032FEF3FEF981748F490
:10109000E92FF0E0ED5BFC4F208130E09F5F909303
:1010A000B103C90108958091B0039091B103891BE8
:1010B000990B0895CF92DF92EF92FF920F931F93B7
:1010C000CF93DF937C01CB018A012091DE032223A1
:1010D00089F0EB016B01C40ED51ECC15DD0569F05E
:1010E0006991D701ED91FC910190F081E02DC7014C
:1010F0001995F3CF642F0E949E06C801DF91CF910E
:101100001F910F91FF90EF90DF90CF900895CF93B4
:10111000DF931F92CDB7DEB769832091DE032223D0
:10112000F9F020910104203258F021E030E0FC0178
:101130003383228390E080E00F90DF91CF91089578
:101140008091DF03E82FF0E0E052FC4F998190831B
:101150008F5F8093DF038093010481E090E0ECCF08
:1011600061E0CE0101960E949E06F7CFCF93C62F75
:10117000672FFC01848191E09093DE03809300044B
:101180001092DF031092010483EC94E00E94870820
:101190006C2F83EC94E00E94870881E0CF910C943F
:1011A0001B07CF93DF9300D000D01F921F92CDB7C3
:1011B000DEB798E0E7E2F2E0DE01119601900D92D1
:1011C0009A95E1F790914605981708F48FEF90E013
:1011D000880F991F21E030E02C0F3D1F820F931FD5
:1011E000FC016081606870E08EE395E028960FB6A0
:1011F000F894DEBF0FBECDBFDF91CF910C94B6083F
:1012000061E070E08EE395E00E94B6088BE39FE119
:101210000197F1F780914705882319F080E00C943D
:10122000D108089570E070640E94B60881E090E0F3
:10123000089590E080E00895CF93DF93EC010E9441
:101240002C04BE01DD0F880B990B0E9402068DE075
:10125000DF91CF910C94AB03FB0101900020E9F7E3
:101260003197AF01461B570BDC01ED91FC910280D9
:10127000F381E02D19940F931F93CF93DF9381E0B7
:101280000E94D1086DEB72E08EE395E00E942C097C
:10129000C2E0D4E006E014E0699170E070648EE38F
:1012A00095E00E94B6080C171D07B1F7DF91CF91AA
:1012B0001F910F9108951092690360E086E10E94EA
:1012C000790360E08FE10E94790360E085E20E948B
:1012D000790360E08BE20E94790360E081E30E9481
:1012E000790360E08AE10E94790360E083E20E9472
:1012F000790360E089E20E94790360E08FE20E9456
:10130000790360E085E30E94790361E088E10E944F
:10131000790361E081E20E94790361E087E20E9443
:10132000790361E08DE20E94790361E083E30E942A
:1013300079030E94000969E672E08EE395E00E945D
:101340002C09EEE3F5E066816B7F6683686070E0F0
:10135000CF010E94B6080E9485011092640310928A
:10136000630308958F929F92AF92BF920F931F9342
:10137000CF93DF93CDB7DEB7A1970FB6F894DEBF5A
:101380000FBECDBF19A2423008F44AE08E010F5DB6
:101390001F4F842E912CB12CA12CA50194010E94E9
:1013A000D314E62FB901CA01EA3044F5E05DD80153
:1013B000EE938D01232B242B252B79F790E080E0F1
:1013C000109769F0FD0101900020E9F73197AF0116
:1013D0004A1B5B0BBD018EE395E00E94B201A19612
:1013E0000FB6F894DEBF0FBECDBFDF91CF911F9136
:1013F0000F91BF90AF909F908F900895E95CD7CFE9
:1014000085ED8093BC008091DA039091DB03A0917D
:10141000DC03B091DD030796A11DB11D23E0B69555
:10142000A795979587952A95D1F72091BC0024FD23
:1014300003C01092D80308954091DA035091DB0362
:101440006091DC037091DD03452B462B472B69F33C
:101450000097A105B10541F025E32A95F1F70000B9
:101460000197A109B109E1CF8091D9030C94FA0643
:101470001F920F920FB60F9211240BB60F922F935B
:101480003F934F935F936F937F938F939F93AF930C
:10149000BF93EF93FF9380911A0490911B04A09146
:1014A0001C04B0911D04892B8A2B8B2BE1F19091A8
:1014B0000904E0910A04F0910B048081892780835C
:1014C00080911A0490911B04A0911C04B0911D04FA
:1014D000181619061A061B069CF480911A0490919E
:1014E0001B04A0911C04B0911D040197A109B1092E
:1014F00080931A0490931B04A0931C04B0931D04C2
:10150000FF91EF91BF91AF919F918F917F916F91DB
:101510005F914F913F912F910F900BBE0F900FBE97
:101520000F901F90189580910D020E94AB03E8CF99
:101530001F920F920FB60F9211240BB60F922F939A
:101540003F934F935F936F937F938F939F93AF934B
:10155000BF93EF93FF9386E294E00E942602FF91EF
:10156000EF91BF91AF919F918F917F916F915F911B
:101570004F913F912F910F900BBE0F900FBE0F9088
:101580001F9018951F920F920FB60F9211240BB651
:101590000F922F938F939F93EF93FF93E0913604D5
:1015A000F09137048081E0913C04F0913D0482FD8C
:1015B0001DC0908180913F048F5F8F732091400404
:1015C000821741F0E0913F04F0E0EA5DFB4F958F18
:1015D00080933F04FF91EF919F918F912F910F90F6
:1015E0000BBE0F900FBE0F901F9018958081F2CF09
:1015F0001F920F920FB60F9211242F933F938F9348
:101600009F93AF93BF9380913B0390913C03A09134
:101610003D03B0913E0330913A0323E0230F2D3771
:1016200058F50196A11DB11D20933A0380933B0309
:1016300090933C03A0933D03B0933E0380913F03FE
:1016400090914003A0914103B09142030196A11DE6
:10165000B11D80933F0390934003A0934103B09347
:101660004203BF91AF919F918F913F912F910F9026
:101670000FBE0F901F90189526E8230F0296A11D0C
:10168000B11DD2CF1F920F920FB60F9211240BB63D
:101690000F922F933F934F935F936F937F938F930B
:1016A0009F93AF93BF93EF93FF938091B900887F8F
:1016B000803609F44DC008F040C0883209F4A9C052
:1016C00028F5803109F49DC0C8F4882309F4FBC0D3
:1016D000883009F496C0FF91EF91BF91AF919F912F
:1016E0008F917F916F915F914F913F912F910F90CB
:1016F0000BBE0F900FBE0F901F901895883109F404
:1017000088C0803241F78093D60314C0803409F436
:101710009DC040F48033B9F38833E9F68093D60353
:1017200085ECB0C0803509F485C0883509F496C0D1
:10173000883489F60E94000ACECF883909F48CC01B
:1017400038F5883729F050F4883611F0803719F6CB
:1017500083E08093D8031092390357C0883809F486
:101760007BC0803919F0803809F0B5CF80913903FA
:10177000803208F071C0E091390381E08E0F8093D0
:1017800039038091BB00F0E0E75EFC4F80833DC0F1
:10179000803B39F0E0F4803A09F479C0883A09F0E6
:1017A0009ACF84E08093D803109218031092170305
:1017B000E091AE03F091AF03199580911703811169
:1017C0000FC081E0809317031092F70209C0803C9C
:1017D00009F4A6CF883C09F4A3CF883B09F07BCF5E
:1017E000E091180381E08E0F80931803F0E0E95038
:1017F000FD4F80818093BB00909118038091170367
:1018000029C08091B3038093BB0085EC8093BC001A
:1018100062CF9091D5038091D403981758F5E09149
:10182000D50381E08E0F8093D503F0E0EC54FC4F9C
:101830008081E9CFE091D50381E08E0F8093D503BD
:101840008091BB00F0E0EC54FC4F80839091D50375
:101850008091D4039817C8F285E8D8CFE091D503DA
:1018600081E08E0F8093D5038091BB00F0E0EC54B3
:10187000FC4F80838091D70381115CCF81E08093FE
:10188000B20384EA8093BC001092D80324CF85EC85
:101890008093BC001092D80380913903803230F4D9
:1018A000E0913903F0E0E75EFC4F1082609139036C
:1018B00070E0E091AC03F091AD0389E193E01995FC
:1018C0001092390308CF1092D60334CF1092290416
:1018D0001092280488EE93E0A0E0B0E080932A0400
:1018E00090932B04A0932C04B0932D0423E332E0B7
:1018F000309327042093260425EC30E03093330402
:101900002093320424EC30E03093350420933404E7
:1019100020EC30E0309337042093360421EC30E0A3
:10192000309339042093380422EC30E030933B04A8
:1019300020933A0426EC30E030933D0420933C049D
:1019400010923F04109240041092410410924204FD
:101950001092C6041092C5048093C7049093C804E3
:10196000A093C904B093CA0485E492E09093C404A0
:101970008093C304109241051092400581E692E0E5
:1019800090933F0580933E05109247058EE3809328
:10199000420580E18093480582E0809349051092DA
:1019A000D1041092D5041092D4041092D60487E585
:1019B00092E09093D0048093CF04EBEEF4E0108299
:1019C000148213821582369685E0E732F807B9F75C
:1019D00081E192E090933205809331058EE092E0B0
:1019E000909334058093330584E08093350583E03C
:1019F0008093360585E192E09093300580932F0522
:101A00008AE090E0909338058093370584EF91E069
:101A100090933A058093390510923D0510923C054C
:101A200010922B0510922C0510922D0510922E0568
:101A300010923B050895CF93DF9300D000D01F9202
:101A40001F92CDB7DEB7789484B5826084BD84B52B
:101A5000816084BD85B5826085BD85B5816085BDA9
:101A600080916E00816080936E0010928100809161
:101A700081008260809381008091810081608093E9
:101A80008100809180008160809380008091B1000E
:101A900084608093B1008091B00081608093B00039
:101AA000809191008260809391008091910081608B
:101AB000809391008091900081608093900080914C
:101AC000A10082608093A1008091A1008160809339
:101AD000A1008091A00081608093A00080912101ED
:101AE0008260809321018091210181608093210196
:101AF0008091200181608093200180917A00846030
:101B000080937A0080917A00826080937A0080913D
:101B10007A00816080937A0080917A008068809357
:101B20007A001092C10061E086E10E94F00361E05A
:101B300088E10E94F00361E08AE10E94F00361E025
:101B40008FE10E94F00361E081E20E94F00361E016
:101B500083E20E94F00361E085E20E94F00361E00D
:101B600087E20E94F00361E089E20E94F00361E0F5
:101B70008BE20E94F00361E08DE20E94F00361E0DD
:101B80008FE20E94F00361E081E30E94F00361E0D4
:101B900083E30E94F00361E085E30E94F00361E0CB
:101BA0008DE00E94F0038091AA039091AB0300970F
:101BB00011F00E94AD1586E090E00E9411158C0195
:101BC00088E6D8018C9383EC94E012969C938E93D4
:101BD000119713961C92139780E290E015969C93B0
:101BE0008E9314971093AB030093AA030E94E3060D
:101BF00081E0F8018383C8010E940B08E09136045C
:101C0000F091370482E08083E0913204F091330454
:101C10001082E0913404F09135048FEC80831092AF
:101C20003E04E0913A04F0913B0486E08083E09129
:101C30003804F0913904808180618083E091380418
:101C4000F0913904808188608083E0913804F091BC
:101C50003904808180688083E0913804F0913904F0
:101C600080818F7D80830E94E30680E1809343051D
:101C700080914905823018F098E190934305809354
:101C800046058BE39DE00197F1F7609143056062A3
:101C900070E08EE395E00E94B6088BE496E401972D
:101CA000F1F760914305606270E08EE395E00E9479
:101CB000B60883E592E00197F1F760914305606211
:101CC00070E08EE395E00E94B60860914305606283
:101CD00070E08EE395E00E94B60884E080934405AE
:101CE0006CE070E08EE395E00E94B6080E94000967
:101CF00082E08093450566E070E08EE395E00E9407
:101D0000B60862E070E08EE395E00E94B6088BE3CF
:101D10009FE10197F1F70E945B09212C312C2101F1
:101D2000239481E080933B050E94350600912B05AA
:101D300010912C0520912D0530912E05AB01BC0191
:101D4000401B510B620B730B809137059091380546
:101D5000B0E0A0E084179507A607B70708F00BC10D
:101D600010E080913505181760F4E0913105F0918D
:101D70003205E10FF11D62E080810E94F0031F5FD8
:101D8000F0CF912C80913605981608F061C0E92CAF
:101D9000F12CE0913305F0913405EE0DFF1D61E06B
:101DA00080810E94F003E0913305F0913405EE0D3F
:101DB000FF1D60E080810E947903D201C101092CDE
:101DC00004C0880F991FAA1FBB1F0A94D2F75C0199
:101DD0006C01C094D094812C80913505881608F54B
:101DE000082D10E0E0913105F0913205E00FF11F70
:101DF00080810E944D030C5F1F4F000F111FF801DF
:101E0000E153FB4F892B41F4808191818A299B29E1
:101E1000918380838394E0CF808191818C219D2167
:101E2000F7CFE0913305F0913405EE0DFF1D61E031
:101E300080810E9479038091330590913405E80EEA
:101E4000F91E60E0D7018C910E94F00393949ACF21
:101E5000EFECEE2EE4E0FE2E6701F601878D90A1F7
:101E6000892B31F4148E8FEF9FEF968F858F11A2FF
:101E700096E0C90ED11CABE0B5E0AC15BD0569F725
:101E8000B12C80913505B81608F051C0A12C0B2D4E
:101E900010E0000F111F09521B4F20913605A216AA
:101EA00008F043C0F801608171810A2C02C0769568
:101EB00067950A94E2F7B29E900111242A0D311D14
:101EC000EFECF4E080E0458D568D2417350709F4DA
:101ED0002DC48F5F36968A30B1F760FF24C0EFECD7
:101EE000F4E090E080E0448D411118C0E0912F05AE
:101EF000F0913005E20FF31F408156E0589FF0014A
:101F0000599FF00D1124E153FB4F448F368F258FDD
:101F100010A2178E61E00E94410605C00196369618
:101F20008A30910501F7A394B8CFB394AACF10E0FB
:101F3000D70191968C918111182FB6E0EB0EF11C10
:101F4000CE14DF04A9F70E94350660932B05709329
:101F50002C0580932D0590932E05112361F080911F
:101F6000F004882341F08091EE049091EF040091F9
:101F7000EB04019719F010923B0500E01982A09044
:101F8000AA03B090AB03F50184819581892B09F4F4
:101F900026C181819281208131E03093DE0320933C
:101FA00000041092DF0310920104DC01ED91FC911A
:101FB0000280F381E02D41E050E0BE016F5F7F4F72
:101FC0001995019709F00BC180E00E941B07811150
:101FD00006C1D12CC12CF5018481958167E0E62EE4
:101FE000F12CEC18FD088E159F0508F47C01D50135
:101FF000BC91B8870E94DD053B014C018091D8035C
:10200000811175C01E2D113208F010E2E1E0E0935D
:10201000D80321E087E090E08E199F09C816D90601
:1020200008F420E02093D703FFEFF093D60310923B
:10203000D5038FEF810F8093D40321E02093B30366
:102040008091B3039884990C982A9092B30380915D
:10205000B203813009F096C01092B2030E94DD05F0
:102060003B014C018091B3038093BB008091DA0364
:102070009091DB03A091DC03B091DD03892B8A2BC7
:102080008B2BA1F00E94DD052091DA033091DB0358
:102090004091DC035091DD0366197709880999099D
:1020A000261737074807590708F442C08091BC003B
:1020B00083FDD8CF55EC5093BC000E94DD053B0159
:1020C0004C018091D803813009F460C08091D50320
:1020D000811710F41091D503A4EBB3E0E3E4F3E02F
:1020E00080E0811751F19D9191938F5FFACF80919C
:1020F000DA039091DB03A091DC03B091DD03892B1F
:102100008A2B8B2B09F47ACF0E94DD052091DA030C
:102110003091DB034091DC035091DD0366197709B0
:1021200088099909261737074807590708F066CF25
:102130008091D9030E94FA0610E01092B103109327
:10214000B0031E151F0409F04AC066246394712C65
:102150006C0E7D1E6C0C7D1C4301C301881999090E
:102160008E159F05A8F5D50111968D919C91DC01E6
:10217000ED91FC910284F385E02D1995F301819393
:102180003F01EBCF85EE8093BC0097CF8091DA03BF
:102190009091DB03A091DC03B091DD03892B8A2BA6
:1021A0008B2B09F48ECF0E94DD052091DA0330914C
:1021B000DB034091DC035091DD0366197709880940
:1021C0009909261737074807590708F07ACFB0CF83
:1021D000CE0CDF1CF7E0CF16D10408F4FCCE1B8137
:1021E00080917B00877F80937B0080E480937C00DC
:1021F00080917A00806480937A0080917A0086FDD5
:10220000FCCF9091780080917900892798278927C1
:10221000843F914034F463E772E086E294E00E94E8
:102220002C09812F90E044E0959587954A95E1F738
:10223000982F990F990F891B880F1750180F1C3072
:1022400008F0A3C081E080930C0286E294E00E9433
:102250001002181619060CF050C03AE8C32E33E0ED
:10226000D32EF12CE12C0E94350660932E0470933E
:102270002F04809330049093310486E294E00E940E
:10228000EE0197FF55C20E94350680902E04909073
:102290002F04A0903004B0903104681979098A099C
:1022A0009B0980902A0490902B04A0902C04B0905D
:1022B0002D04681579058A059B05F8F2F9E0EF16FB
:1022C000F10408F044C240E250E06AE673E086E2BE
:1022D00094E00E94B20186E294E00E94950280E2BE
:1022E000EAE6F3E0DF01282F1D922A95E9F7EAE8F4
:1022F000F3E0DF011D928A95E9F780916903882355
:1023000009F48CC280910B028111D0C0E090670368
:10231000F0906803E114F10471F461E086E10E9439
:10232000790361E088E10E9479038FE190E0909366
:10233000020280930102C7016AE070E00E94BF14AC
:10234000892B89F4809101029091020285329105D6
:1023500009F486C00CF040C08631910509F456C0DE
:102360004F9709F46AC0BFEFEB1AFB0AF0926803BB
:10237000E092670362E370E080E090E00E94020672
:102380000111B4C20E94B502CCCC10920C025DCFF8
:10239000809381032FC23091900330937003209378
:1023A0007103809372039093730326E42093740364
:1023B00020937503809376039093770321E4209311
:1023C00078032093790380937A0390937B0320937F
:1023D0007C0320937D0377CF8B32910509F453C0A2
:1023E000C19709F0C0CF60E081E30E94790360E00B
:1023F00083E30E94790361E086E10E94790361E052
:1024000088E10E94790386E190E012C060E086E1F5
:102410000E94790360E088E10E94790361E08FE126
:102420000E94790361E081E20E9479038FE190E0EC
:10243000909302028093010296CF60E08FE10E94A8
:10244000790360E081E20E94790361E085E20E9405
:10245000790361E087E20E94790385E290E0E8CFAA
:1024600060E085E20E94790360E087E20E947903E0
:1024700061E08BE20E94790361E08DE20E947903C2
:102480008BE290E0D5CF60E08BE20E94790360E0C0
:102490008DE20E94790361E081E30E94790361E0AB
:1024A00083E30E94790381E390E0C2CF002309F423
:1024B00069CF84E690E00E941C0964CF033209F4DE
:1024C00003C28091650390916603843091050CF0FE
:1024D00059CFFC01EE5FFB4F00830196909366039A
:1024E000809365030E943B094DCF809163039091D7
:1024F000640301969093640380936303039709F444
:10250000B0C00E94000964E670E080E090E00E94A4
:10251000020680E00E94D1086EE972E08EE395E049
:102520000E942C0981E00E94D10880916303909160
:10253000640323E0C22ED12CC81AD90A0D2C000C3A
:10254000EE08FF084AE0C701B601F7FE0EC06DE2D3
:1025500070E48EE395E00E94B60866277727CB01EA
:102560006C197D098E099F094AE00E94B20969EA47
:1025700072E08EE395E00E942C0960E088E10E9401
:10258000790360E081E20E94790360E087E20E94C3
:10259000790360E08DE20E94790360E083E30E94AA
:1025A00079030E942C0402E310E06801F12CE12C75
:1025B000E8E0EE16F1040CF042C061E086E10E9412
:1025C000790361E08FE10E94790361E085E20E9476
:1025D000790361E08BE20E94790361E081E30E946C
:1025E0007903FFEFEF1AFF0A28EEC21623E0D206A6
:1025F0001CF08DE00E94AB0362E370E080E090E0AD
:102600000E940206C00ED11E5FE0E516F10481F6BD
:102610000E5C1F4F0639110541F60E94850110928C
:102620006603109265030E9400096EEB72E08EE370
:1026300095E00E942C0981E00E94D10853CF60E010
:1026400086E10E94790360E08FE10E94790360E0F7
:1026500085E20E94790360E08BE20E94790360E0EA
:10266000BDCF0E942C040E94000964E670E080E067
:1026700090E00E94020680E00E94D1086DEC72E0BA
:102680008EE395E00E942C0981E00E94D1086BED59
:1026900072E08EE395E00E942C0960E088E10E94E0
:1026A000790360E081E20E94790360E087E20E94A2
:1026B000790360E08DE20E94790360E083E30E9489
:1026C000790360E08AE10E94790360E083E20E947E
:1026D000790360E089E20E94790360E08FE20E9462
:1026E000790360E085E30E94790361E086E10E945E
:1026F000790361E08FE10E94790361E085E20E9445
:10270000790361E08BE20E94790361E081E30E943A
:10271000790381E080930B026CE677E080E090E043
:102720000E9402068DE00E94AB032CCE6170F3CBB9
:102730008132910509F4C2CDD6018D936D01BFEFB1
:10274000EB1AFB0AE0E2EE16F10409F08CCD809161
:102750008A03803309F0B7CD90918B03983709F045
:10276000B2CD80918C03803309F0ADCD30918D03D3
:10277000313309F0A8CD80936A0390936B03809363
:102780006C0330936D032091910380936E039093BB
:102790006F03233309F0FFCD8093700320937103FF
:1027A000209199038093720390937303233309F06C
:1027B000FCCD80937403809375038093760390938C
:1027C0007703809378032093790380937A0390931F
:1027D0007B0380937C0380937D0380937E0390939F
:1027E0007F038093800390910B02992309F4D0CD4D
:1027F0003093810320E32093820398E7909383032F
:1028000081E48093840380938503209386039093CF
:102810008703809388038093890355CD002309F4AF
:10282000B1CD84E690E00E941C0981E080936903A9
:1028300060914405862F8460809344056C6070E04D
:102840008EE395E00E94B60888EE93E00E941C0992
:1028500068EE73E080E090E00E94020688EE93E06C
:102860000E941C0968EE73E080E090E00E9402067E
:1028700088EE93E00E941C090E94000964E670E063
:1028800080E090E00E9402066EEB72E08EE395E03D
:102890000E942C0981E00E94D1080E943B0960E05F
:1028A00088E10E94790360E081E20E94790360E0A0
:1028B00087E20E94790360E08DE20E94790360E084
:1028C00083E30E9479035ECD0E94000964E670E014
:1028D00080E090E00E94020680E00E94D1086CEE49
:1028E00072E08EE395E00E942C0940C084E690E0FF
:1028F0000E941C090A3209F0E1CD80910002E2E059
:10290000F4E0A3E0B2E026E034E041919D91491368
:1029100080E02E173F07C9F780930002813009F04D
:10292000E4CD0E942C040E94000980E00E94D1089E
:1029300064E872E08EE395E00E942C0981E00E9439
:10294000D10860E972E08EE395E00E942C091092B4
:102950006603109265030E94850168EE73E080E0D3
:1029600090E00E9402068DE00E94AB0360ED77E0EC
:1029700080E090E00E9402060E945B0903CD97FB75
:10298000072E16F4009407D077FD09D00E94FD149D
:1029900007FC05D03EF4909581959F4F0895709562
:1029A00061957F4F0895A1E21A2EAA1BBB1BFD0162
:1029B0000DC0AA1FBB1FEE1FFF1FA217B307E4071E
:1029C000F50720F0A21BB30BE40BF50B661F771F76
:1029D000881F991F1A9469F7609570958095909556
:1029E0009B01AC01BD01CF010895EE0FFF1F881FB1
:1029F0008BBF0790F691E02D1994AA1BBB1B51E1E8
:102A000007C0AA1FBB1FA617B70710F0A61BB70B5E
:102A1000881F991F5A95A9F780959095BC01CD0103
:102A200008950F931F93CF93DF938230910510F495
:102A300082E090E0E0914C05F0914D0530E020E01F
:102A4000B0E0A0E0309799F42115310509F44AC0AF
:102A5000281B390B24303105D8F58A819B816115FB
:102A6000710589F1FB0193838283FE0111C04081CE
:102A700051810281138148175907E0F0481759071F
:102A800099F4109761F012960C93129713961C9379
:102A90003296CF01DF91CF911F910F91089500934E
:102AA0004C0510934D05F4CF2115310551F0421717
:102AB000530738F0A901DB019A01BD01DF01F801DC
:102AC000C1CFEF01F9CF90934D0580934C05CDCF49
:102AD000FE01E20FF31F8193919322503109398354
:102AE0002883D7CF20914A0530914B05232B41F401
:102AF000209123023091240230934B0520934A0504
:102B000020912102309122022115310541F42DB787
:102B10003EB74091250250912602241B350BE091CF
:102B20004A05F0914B05E217F307A0F42E1B3F0B6B
:102B30002817390778F0AC014E5F5F4F241735072F
:102B400048F04E0F5F1F50934B0540934A05819309
:102B500091939FCFF0E0E0E09CCFCF93DF9300977D
:102B6000E9F0FC01329713821282A0914C05B091DA
:102B70004D05ED0130E020E01097A1F42081318176
:102B8000820F931F20914A0530914B052817390772
:102B900009F061C0F0934B05E0934A05DF91CF91B6
:102BA0000895EA01CE17DF07E8F54A815B819E01AF
:102BB00041155105B1F7E901FB83EA834991599128
:102BC000C40FD51FEC17FD0761F480819181029637
:102BD000840F951FE90199838883828193819B8368
:102BE0008A83F0E0E0E012968D919C911397009714
:102BF000B9F52D913C911197CD010296820F931F4B
:102C000020914A0530914B052817390739F630973E
:102C100051F510924D0510924C05B0934B05A093C1
:102C20004A05BCCFD383C28340815181840F951F55
:102C3000C817D90761F44E5F5F4F88819981480FAB
:102C4000591F518340838A819B81938382832115FD
:102C5000310509F0B0CFF0934D05E0934C059ECFC0
:102C6000FD01DC01C0CF13821282D7CFF894FFCFD1
:102C700001160038353931393438320000FF080781
:102C800006020304053132333435363738392A30F9
:102C90002300004E05800000004000140054000096
:102CA0000000004802B201DF0195021002EE0102AD
:102CB000020000000087085A08190930085308402C
:102CC00008310800000000D905A7037603000000C2
:102CD000001209B20119099D064249454E56454E5A
:102CE0005545004261636B6C696768742061637469
:102CF000697665004D445020436F727265637400BD
:102D0000426F6E6E65206A6F75726E6565004D4428
:102D100050204572726F6E6500206573736169287B
:102D200073292072657374616E74287329004D4F86
:102D300054204445205041535345203A0054524FAB
:102D40005020442745535341495300504153534168
:102D5000474520534543555249544500415520525B
:062D600045564F495200E8
:00000001FF
